{
  "_format": "hh-sol-artifact-1",
  "contractName": "SimpleStorage",
  "sourceName": "contracts/SimpleStorage.sol",
  "abi": [
    {
      "inputs": [
        {
          "internalType": "uint256",
          "name": "_stored",
          "type": "uint256"
        }
      ],
      "stateMutability": "nonpayable",
      "type": "constructor"
    },
    {
      "inputs": [],
      "name": "get",
      "outputs": [
        {
          "internalType": "uint256",
          "name": "",
          "type": "uint256"
        }
      ],
      "stateMutability": "view",
      "type": "function"
    },
    {
      "inputs": [
        {
          "internalType": "uint256",
          "name": "x",
          "type": "uint256"
        }
      ],
      "name": "set",
      "outputs": [],
      "stateMutability": "nonpayable",
      "type": "function"
    },
    {
      "inputs": [],
      "name": "storeddata",
      "outputs": [
        {
          "internalType": "uint256",
          "name": "",
          "type": "uint256"
        }
      ],
      "stateMutability": "view",
      "type": "function"
    }
  ],
  "bytecode": "0x608060405234801561001057600080fd5b5060405161082f38038061082f833981810160405281019061003291906102a9565b6100776040518060400160405280600e81526020017f446576656c6f7065642062793a20000000000000000000000000000000000000815250336100c960201b60201c565b6100bc6040518060400160405280601581526020017f4465706c6f7965642062792076616c75653a20257300000000000000000000008152508261016b60201b60201c565b8060008190555050610445565b61016782826040516024016100df9291906103a7565b6040516020818303038152906040527f319af333000000000000000000000000000000000000000000000000000000007bffffffffffffffffffffffffffffffffffffffffffffffffffffffff19166020820180517bffffffffffffffffffffffffffffffffffffffffffffffffffffffff838183161783525050505061020d60201b60201c565b5050565b61020982826040516024016101819291906103e6565b6040516020818303038152906040527fb60e72cc000000000000000000000000000000000000000000000000000000007bffffffffffffffffffffffffffffffffffffffffffffffffffffffff19166020820180517bffffffffffffffffffffffffffffffffffffffffffffffffffffffff838183161783525050505061020d60201b60201c565b5050565b61022e8161022961023160201b6101381761025260201b60201c565b60201c565b50565b60006a636f6e736f6c652e6c6f679050600080835160208501845afa505050565b61026460201b61021a17819050919050565b61026c610416565b565b600080fd5b6000819050919050565b61028681610273565b811461029157600080fd5b50565b6000815190506102a38161027d565b92915050565b6000602082840312156102bf576102be61026e565b5b60006102cd84828501610294565b91505092915050565b600081519050919050565b600082825260208201905092915050565b60005b838110156103105780820151818401526020810190506102f5565b60008484015250505050565b6000601f19601f8301169050919050565b6000610338826102d6565b61034281856102e1565b93506103528185602086016102f2565b61035b8161031c565b840191505092915050565b600073ffffffffffffffffffffffffffffffffffffffff82169050919050565b600061039182610366565b9050919050565b6103a181610386565b82525050565b600060408201905081810360008301526103c1818561032d565b90506103d06020830184610398565b9392505050565b6103e081610273565b82525050565b60006040820190508181036000830152610400818561032d565b905061040f60208301846103d7565b9392505050565b7f4e487b7100000000000000000000000000000000000000000000000000000000600052605160045260246000fd5b6103db806104546000396000f3fe608060405234801561001057600080fd5b50600436106100415760003560e01c806322e09a721461004657806360fe47b1146100645780636d4ce63c14610080575b600080fd5b61004e61009e565b60405161005b919061023d565b60405180910390f35b61007e60048036038101906100799190610289565b6100a4565b005b6100886100ed565b604051610095919061023d565b60405180910390f35b60005481565b6100e36040518060400160405280601081526020017f5365742076616c756520746f3a2025730000000000000000000000000000000081525082610159565b8060008190555050565b60006101306040518060400160405280601581526020017f52657472697665642076616c75652069733a2025730000000000000000000000815250600054610159565b600054905090565b60006a636f6e736f6c652e6c6f679050600080835160208501845afa505050565b6101f1828260405160240161016f929190610346565b6040516020818303038152906040527fb60e72cc000000000000000000000000000000000000000000000000000000007bffffffffffffffffffffffffffffffffffffffffffffffffffffffff19166020820180517bffffffffffffffffffffffffffffffffffffffffffffffffffffffff83818316178352505050506101f5565b5050565b61020c8161020461013861020f565b63ffffffff16565b50565b61021a819050919050565b610222610376565b565b6000819050919050565b61023781610224565b82525050565b6000602082019050610252600083018461022e565b92915050565b600080fd5b61026681610224565b811461027157600080fd5b50565b6000813590506102838161025d565b92915050565b60006020828403121561029f5761029e610258565b5b60006102ad84828501610274565b91505092915050565b600081519050919050565b600082825260208201905092915050565b60005b838110156102f05780820151818401526020810190506102d5565b60008484015250505050565b6000601f19601f8301169050919050565b6000610318826102b6565b61032281856102c1565b93506103328185602086016102d2565b61033b816102fc565b840191505092915050565b60006040820190508181036000830152610360818561030d565b905061036f602083018461022e565b9392505050565b7f4e487b7100000000000000000000000000000000000000000000000000000000600052605160045260246000fdfea26469706673582212208852eebfbac4e7e3da9cc4b86f71c29f21be2715909e6a487306cf3aa93acbb664736f6c634300081c0033",
  "linkReferences": {},
  "deployedLinkReferences": {}
}